{
  "contractName": "ThtVesting",
  "abi": [
    {
      "inputs": [
        {
          "internalType": "address",
          "name": "_tokenAddress",
          "type": "address"
        },
        {
          "internalType": "address payable",
          "name": "_wallet",
          "type": "address"
        },
        {
          "internalType": "uint256",
          "name": "_minInvestment",
          "type": "uint256"
        },
        {
          "internalType": "uint256",
          "name": "_cap",
          "type": "uint256"
        },
        {
          "internalType": "uint256",
          "name": "_rate",
          "type": "uint256"
        }
      ],
      "stateMutability": "nonpayable",
      "type": "constructor"
    },
    {
      "anonymous": false,
      "inputs": [],
      "name": "Finalized",
      "type": "event"
    },
    {
      "anonymous": false,
      "inputs": [
        {
          "indexed": true,
          "internalType": "address",
          "name": "previousOwner",
          "type": "address"
        },
        {
          "indexed": true,
          "internalType": "address",
          "name": "newOwner",
          "type": "address"
        }
      ],
      "name": "OwnershipTransferred",
      "type": "event"
    },
    {
      "anonymous": false,
      "inputs": [
        {
          "indexed": false,
          "internalType": "address",
          "name": "account",
          "type": "address"
        }
      ],
      "name": "Paused",
      "type": "event"
    },
    {
      "anonymous": false,
      "inputs": [
        {
          "indexed": true,
          "internalType": "address",
          "name": "purchaser",
          "type": "address"
        },
        {
          "indexed": true,
          "internalType": "address",
          "name": "beneficiary",
          "type": "address"
        },
        {
          "indexed": false,
          "internalType": "uint256",
          "name": "value",
          "type": "uint256"
        },
        {
          "indexed": false,
          "internalType": "uint256",
          "name": "amount",
          "type": "uint256"
        }
      ],
      "name": "TokenPurchase",
      "type": "event"
    },
    {
      "anonymous": false,
      "inputs": [
        {
          "indexed": false,
          "internalType": "address",
          "name": "account",
          "type": "address"
        }
      ],
      "name": "Unpaused",
      "type": "event"
    },
    {
      "inputs": [],
      "name": "cap",
      "outputs": [
        {
          "internalType": "uint256",
          "name": "",
          "type": "uint256"
        }
      ],
      "stateMutability": "view",
      "type": "function",
      "constant": true
    },
    {
      "inputs": [],
      "name": "isFinalized",
      "outputs": [
        {
          "internalType": "bool",
          "name": "",
          "type": "bool"
        }
      ],
      "stateMutability": "view",
      "type": "function",
      "constant": true
    },
    {
      "inputs": [],
      "name": "minInvestment",
      "outputs": [
        {
          "internalType": "uint256",
          "name": "",
          "type": "uint256"
        }
      ],
      "stateMutability": "view",
      "type": "function",
      "constant": true
    },
    {
      "inputs": [
        {
          "internalType": "address",
          "name": "",
          "type": "address"
        },
        {
          "internalType": "uint256",
          "name": "",
          "type": "uint256"
        }
      ],
      "name": "orders",
      "outputs": [
        {
          "internalType": "uint256",
          "name": "amount",
          "type": "uint256"
        },
        {
          "internalType": "uint256",
          "name": "lockup",
          "type": "uint256"
        },
        {
          "internalType": "bool",
          "name": "claimed",
          "type": "bool"
        }
      ],
      "stateMutability": "view",
      "type": "function",
      "constant": true
    },
    {
      "inputs": [],
      "name": "owner",
      "outputs": [
        {
          "internalType": "address",
          "name": "",
          "type": "address"
        }
      ],
      "stateMutability": "view",
      "type": "function",
      "constant": true
    },
    {
      "inputs": [],
      "name": "paused",
      "outputs": [
        {
          "internalType": "bool",
          "name": "",
          "type": "bool"
        }
      ],
      "stateMutability": "view",
      "type": "function",
      "constant": true
    },
    {
      "inputs": [],
      "name": "rate",
      "outputs": [
        {
          "internalType": "uint256",
          "name": "",
          "type": "uint256"
        }
      ],
      "stateMutability": "view",
      "type": "function",
      "constant": true
    },
    {
      "inputs": [],
      "name": "renounceOwnership",
      "outputs": [],
      "stateMutability": "nonpayable",
      "type": "function"
    },
    {
      "inputs": [],
      "name": "sold",
      "outputs": [
        {
          "internalType": "uint256",
          "name": "",
          "type": "uint256"
        }
      ],
      "stateMutability": "view",
      "type": "function",
      "constant": true
    },
    {
      "inputs": [
        {
          "internalType": "address",
          "name": "newOwner",
          "type": "address"
        }
      ],
      "name": "transferOwnership",
      "outputs": [],
      "stateMutability": "nonpayable",
      "type": "function"
    },
    {
      "inputs": [],
      "name": "wallet",
      "outputs": [
        {
          "internalType": "address",
          "name": "",
          "type": "address"
        }
      ],
      "stateMutability": "view",
      "type": "function",
      "constant": true
    },
    {
      "inputs": [],
      "name": "weiRaised",
      "outputs": [
        {
          "internalType": "uint256",
          "name": "",
          "type": "uint256"
        }
      ],
      "stateMutability": "view",
      "type": "function",
      "constant": true
    },
    {
      "inputs": [
        {
          "internalType": "address",
          "name": "beneficiary",
          "type": "address"
        }
      ],
      "name": "buyTokens",
      "outputs": [],
      "stateMutability": "payable",
      "type": "function",
      "payable": true
    },
    {
      "inputs": [],
      "name": "getOrdersCount",
      "outputs": [
        {
          "internalType": "uint256",
          "name": "",
          "type": "uint256"
        }
      ],
      "stateMutability": "view",
      "type": "function",
      "constant": true
    },
    {
      "inputs": [],
      "name": "getLockedTokensCount",
      "outputs": [
        {
          "internalType": "uint256",
          "name": "",
          "type": "uint256"
        }
      ],
      "stateMutability": "view",
      "type": "function",
      "constant": true
    },
    {
      "inputs": [],
      "name": "finalize",
      "outputs": [],
      "stateMutability": "nonpayable",
      "type": "function"
    },
    {
      "inputs": [],
      "name": "hasEnded",
      "outputs": [
        {
          "internalType": "bool",
          "name": "",
          "type": "bool"
        }
      ],
      "stateMutability": "view",
      "type": "function",
      "constant": true
    }
  ],
  "bytecode": "0x6080604052624f1a00426200001591906200029f565b6009556000600a553480156200002a57600080fd5b506040516200184f3803806200184f8339818101604052810190620000509190620003dc565b60008060006101000a81548160ff0219169083151502179055506200008a6200007e6200019960201b60201c565b620001a160201b60201c565b600073ffffffffffffffffffffffffffffffffffffffff168473ffffffffffffffffffffffffffffffffffffffff161415620000c557600080fd5b6000831015620000d457600080fd5b60008211620000e257600080fd5b84600160006101000a81548173ffffffffffffffffffffffffffffffffffffffff021916908373ffffffffffffffffffffffffffffffffffffffff16021790555083600260006101000a81548173ffffffffffffffffffffffffffffffffffffffff021916908373ffffffffffffffffffffffffffffffffffffffff1602179055508060068190555082600581905550670de0b6b3a76400008262000188919062000464565b6004819055505050505050620004c5565b600033905090565b60008060019054906101000a900473ffffffffffffffffffffffffffffffffffffffff16905081600060016101000a81548173ffffffffffffffffffffffffffffffffffffffff021916908373ffffffffffffffffffffffffffffffffffffffff1602179055508173ffffffffffffffffffffffffffffffffffffffff168173ffffffffffffffffffffffffffffffffffffffff167f8be0079c531659141344cd1fd0a4f28419497f9722a3daafe3b4186f6b6457e060405160405180910390a35050565b6000819050919050565b7f4e487b7100000000000000000000000000000000000000000000000000000000600052601160045260246000fd5b6000620002ac8262000266565b9150620002b98362000266565b9250827fffffffffffffffffffffffffffffffffffffffffffffffffffffffffffffffff03821115620002f157620002f062000270565b5b828201905092915050565b600080fd5b600073ffffffffffffffffffffffffffffffffffffffff82169050919050565b60006200032e8262000301565b9050919050565b620003408162000321565b81146200034c57600080fd5b50565b600081519050620003608162000335565b92915050565b6000620003738262000301565b9050919050565b620003858162000366565b81146200039157600080fd5b50565b600081519050620003a5816200037a565b92915050565b620003b68162000266565b8114620003c257600080fd5b50565b600081519050620003d681620003ab565b92915050565b600080600080600060a08688031215620003fb57620003fa620002fc565b5b60006200040b888289016200034f565b95505060206200041e8882890162000394565b94505060406200043188828901620003c5565b93505060606200044488828901620003c5565b92505060806200045788828901620003c5565b9150509295509295909350565b6000620004718262000266565b91506200047e8362000266565b9250817fffffffffffffffffffffffffffffffffffffffffffffffffffffffffffffffff0483118215151615620004ba57620004b962000270565b5b828202905092915050565b61137a80620004d56000396000f3fe6080604052600436106100fe5760003560e01c8063793b8c6d11610095578063b5b3b05111610064578063b5b3b051146102f3578063e62f654c1461031e578063ec8ac4d814610349578063ecb70fb714610365578063f2fde38b14610390576100fe565b8063793b8c6d146102335780638ac2c680146102725780638d4e40831461029d5780638da5cb5b146102c8576100fe565b80634bb278f3116100d15780634bb278f3146101af578063521eb273146101c65780635c975abb146101f1578063715018a61461021c576100fe565b806302c7e7af146101035780632c4e722e1461012e578063355274ea146101595780634042b66f14610184575b600080fd5b34801561010f57600080fd5b506101186103b9565b6040516101259190610dae565b60405180910390f35b34801561013a57600080fd5b506101436103bf565b6040516101509190610dae565b60405180910390f35b34801561016557600080fd5b5061016e6103c5565b60405161017b9190610dae565b60405180910390f35b34801561019057600080fd5b506101996103cb565b6040516101a69190610dae565b60405180910390f35b3480156101bb57600080fd5b506101c46103d1565b005b3480156101d257600080fd5b506101db6104c1565b6040516101e89190610e0a565b60405180910390f35b3480156101fd57600080fd5b506102066104e7565b6040516102139190610e40565b60405180910390f35b34801561022857600080fd5b506102316104fd565b005b34801561023f57600080fd5b5061025a60048036038101906102559190610eb8565b610585565b60405161026993929190610ef8565b60405180910390f35b34801561027e57600080fd5b506102876105d9565b6040516102949190610dae565b60405180910390f35b3480156102a957600080fd5b506102b26105df565b6040516102bf9190610e40565b60405180910390f35b3480156102d457600080fd5b506102dd6105f2565b6040516102ea9190610e0a565b60405180910390f35b3480156102ff57600080fd5b5061030861061b565b6040516103159190610dae565b60405180910390f35b34801561032a57600080fd5b50610333610665565b6040516103409190610dae565b60405180910390f35b610363600480360381019061035e9190610f2f565b6107b9565b005b34801561037157600080fd5b5061037a610a75565b6040516103879190610e40565b60405180910390f35b34801561039c57600080fd5b506103b760048036038101906103b29190610f2f565b610a96565b005b60085481565b60065481565b60045481565b60035481565b6103d9610b8e565b73ffffffffffffffffffffffffffffffffffffffff166103f76105f2565b73ffffffffffffffffffffffffffffffffffffffff161461044d576040517f08c379a000000000000000000000000000000000000000000000000000000000815260040161044490610fb9565b60405180910390fd5b600760009054906101000a900460ff161561046757600080fd5b61046f610a75565b61047857600080fd5b7f6823b073d48d6e3a7d385eeb601452d680e74bb46afe3255a7d778f3a9b1768160405160405180910390a16001600760006101000a81548160ff021916908315150217905550565b600260009054906101000a900473ffffffffffffffffffffffffffffffffffffffff1681565b60008060009054906101000a900460ff16905090565b610505610b8e565b73ffffffffffffffffffffffffffffffffffffffff166105236105f2565b73ffffffffffffffffffffffffffffffffffffffff1614610579576040517f08c379a000000000000000000000000000000000000000000000000000000000815260040161057090610fb9565b60405180910390fd5b6105836000610b96565b565b600b60205281600052604060002081815481106105a157600080fd5b9060005260206000209060030201600091509150508060000154908060010154908060020160009054906101000a900460ff16905083565b60055481565b600760009054906101000a900460ff1681565b60008060019054906101000a900473ffffffffffffffffffffffffffffffffffffffff16905090565b6000600b60003373ffffffffffffffffffffffffffffffffffffffff1673ffffffffffffffffffffffffffffffffffffffff16815260200190815260200160002080549050905090565b6000806000905060005b600b60003373ffffffffffffffffffffffffffffffffffffffff1673ffffffffffffffffffffffffffffffffffffffff168152602001908152602001600020805490508110156107b157600b60003373ffffffffffffffffffffffffffffffffffffffff1673ffffffffffffffffffffffffffffffffffffffff168152602001908152602001600020818154811061070a57610709610fd9565b5b906000526020600020906003020160020160009054906101000a900460ff1661079e57600b60003373ffffffffffffffffffffffffffffffffffffffff1673ffffffffffffffffffffffffffffffffffffffff168152602001908152602001600020818154811061077e5761077d610fd9565b5b9060005260206000209060030201600001548261079b9190611037565b91505b80806107a99061108d565b91505061066f565b508091505090565b6107c16104e7565b15610801576040517f08c379a00000000000000000000000000000000000000000000000000000000081526004016107f890611122565b60405180910390fd5b600073ffffffffffffffffffffffffffffffffffffffff168173ffffffffffffffffffffffffffffffffffffffff16141561083b57600080fd5b610843610c5b565b61084c57600080fd5b600a6000815461085b9061108d565b91905081905550600034905061087c81600354610caf90919063ffffffff16565b600381905550600061089960065483610cc590919063ffffffff16565b905060006108b1600a83610cdb90919063ffffffff16565b905060006108db6108cc600a85610cdb90919063ffffffff16565b84610cf190919063ffffffff16565b90506108e5610d72565b818160000181815250506009548160200181815250506000816040019015159081151581525050600b60003373ffffffffffffffffffffffffffffffffffffffff1673ffffffffffffffffffffffffffffffffffffffff168152602001908152602001600020819080600181540180825580915050600190039060005260206000209060030201600090919091909150600082015181600001556020820151816001015560408201518160020160006101000a81548160ff021916908315150217905550505083600860008282546109bd9190611037565b92505081905550600160009054906101000a900473ffffffffffffffffffffffffffffffffffffffff1673ffffffffffffffffffffffffffffffffffffffff1663a9059cbb33856040518363ffffffff1660e01b8152600401610a21929190611142565b6020604051808303816000875af1158015610a40573d6000803e3d6000fd5b505050506040513d601f19601f82011682018060405250810190610a649190611197565b50610a6d610d07565b505050505050565b600080600454600654600354610a8b91906111c4565b101590508091505090565b610a9e610b8e565b73ffffffffffffffffffffffffffffffffffffffff16610abc6105f2565b73ffffffffffffffffffffffffffffffffffffffff1614610b12576040517f08c379a0000000000000000000000000000000000000000000000000000000008152600401610b0990610fb9565b60405180910390fd5b600073ffffffffffffffffffffffffffffffffffffffff168173ffffffffffffffffffffffffffffffffffffffff161415610b82576040517f08c379a0000000000000000000000000000000000000000000000000000000008152600401610b7990611290565b60405180910390fd5b610b8b81610b96565b50565b600033905090565b60008060019054906101000a900473ffffffffffffffffffffffffffffffffffffffff16905081600060016101000a81548173ffffffffffffffffffffffffffffffffffffffff021916908373ffffffffffffffffffffffffffffffffffffffff1602179055508173ffffffffffffffffffffffffffffffffffffffff168173ffffffffffffffffffffffffffffffffffffffff167f8be0079c531659141344cd1fd0a4f28419497f9722a3daafe3b4186f6b6457e060405160405180910390a35050565b600080610c7334600354610caf90919063ffffffff16565b9050600060055434101590506000600454610c9960065485610cc590919063ffffffff16565b11159050818015610ca75750805b935050505090565b60008183610cbd9190611037565b905092915050565b60008183610cd391906111c4565b905092915050565b60008183610ce991906112df565b905092915050565b60008183610cff9190611310565b905092915050565b600260009054906101000a900473ffffffffffffffffffffffffffffffffffffffff1673ffffffffffffffffffffffffffffffffffffffff166108fc349081150290604051600060405180830381858888f19350505050158015610d6f573d6000803e3d6000fd5b50565b604051806060016040528060008152602001600081526020016000151581525090565b6000819050919050565b610da881610d95565b82525050565b6000602082019050610dc36000830184610d9f565b92915050565b600073ffffffffffffffffffffffffffffffffffffffff82169050919050565b6000610df482610dc9565b9050919050565b610e0481610de9565b82525050565b6000602082019050610e1f6000830184610dfb565b92915050565b60008115159050919050565b610e3a81610e25565b82525050565b6000602082019050610e556000830184610e31565b92915050565b600080fd5b610e6981610de9565b8114610e7457600080fd5b50565b600081359050610e8681610e60565b92915050565b610e9581610d95565b8114610ea057600080fd5b50565b600081359050610eb281610e8c565b92915050565b60008060408385031215610ecf57610ece610e5b565b5b6000610edd85828601610e77565b9250506020610eee85828601610ea3565b9150509250929050565b6000606082019050610f0d6000830186610d9f565b610f1a6020830185610d9f565b610f276040830184610e31565b949350505050565b600060208284031215610f4557610f44610e5b565b5b6000610f5384828501610e77565b91505092915050565b600082825260208201905092915050565b7f4f776e61626c653a2063616c6c6572206973206e6f7420746865206f776e6572600082015250565b6000610fa3602083610f5c565b9150610fae82610f6d565b602082019050919050565b60006020820190508181036000830152610fd281610f96565b9050919050565b7f4e487b7100000000000000000000000000000000000000000000000000000000600052603260045260246000fd5b7f4e487b7100000000000000000000000000000000000000000000000000000000600052601160045260246000fd5b600061104282610d95565b915061104d83610d95565b9250827fffffffffffffffffffffffffffffffffffffffffffffffffffffffffffffffff0382111561108257611081611008565b5b828201905092915050565b600061109882610d95565b91507fffffffffffffffffffffffffffffffffffffffffffffffffffffffffffffffff8214156110cb576110ca611008565b5b600182019050919050565b7f5061757361626c653a2070617573656400000000000000000000000000000000600082015250565b600061110c601083610f5c565b9150611117826110d6565b602082019050919050565b6000602082019050818103600083015261113b816110ff565b9050919050565b60006040820190506111576000830185610dfb565b6111646020830184610d9f565b9392505050565b61117481610e25565b811461117f57600080fd5b50565b6000815190506111918161116b565b92915050565b6000602082840312156111ad576111ac610e5b565b5b60006111bb84828501611182565b91505092915050565b60006111cf82610d95565b91506111da83610d95565b9250817fffffffffffffffffffffffffffffffffffffffffffffffffffffffffffffffff048311821515161561121357611212611008565b5b828202905092915050565b7f4f776e61626c653a206e6577206f776e657220697320746865207a65726f206160008201527f6464726573730000000000000000000000000000000000000000000000000000602082015250565b600061127a602683610f5c565b91506112858261121e565b604082019050919050565b600060208201905081810360008301526112a98161126d565b9050919050565b7f4e487b7100000000000000000000000000000000000000000000000000000000600052601260045260246000fd5b60006112ea82610d95565b91506112f583610d95565b925082611305576113046112b0565b5b828204905092915050565b600061131b82610d95565b915061132683610d95565b92508282101561133957611338611008565b5b82820390509291505056fea26469706673582212208c31613980621bb6c86a83aeb482f53ddc2ce5e803b01ef2b46ef257804b1aec64736f6c634300080a0033",
  "immutableReferences": {},
  "source": "//SPDX-License-Identifier: MIT\npragma solidity ^0.8.10;\n\nimport '@openzeppelin/contracts/utils/math/SafeMath.sol';\nimport '@openzeppelin/contracts/security/Pausable.sol';\nimport '@openzeppelin/contracts/access/Ownable.sol';\nimport './ThtToken.sol';\n\n/**\n * @title ThtVesting\n */\n\ncontract ThtVesting is Pausable, Ownable {\n    using SafeMath for uint256;\n\n    // The token being sold\n    address TokenAddress;\n\n    // address where funds are collected\n    address public wallet;\n\n    // amount of raised money in wei\n    uint256 public weiRaised;\n\n    // cap above which the vesting is ended\n    uint256 public cap;\n\n    uint256 public minInvestment;\n\n    uint256 public rate;\n\n    bool public isFinalized;\n\n    uint256 public sold;\n\n    uint256 lockup = block.timestamp + 60 days;\n\n    struct Order {\n        uint256 amount;\n        uint256 lockup;\n        bool    claimed;\n    }\n    uint256 private latestOrderId = 0;\n    mapping(address => Order[]) public orders;\n\n    /**\n     * constructor\n     * @param _tokenAddress token address\n     * @param _wallet who receives invested ether\n     * @param _minInvestment is the minimum amount of ether that can be sent to the contract\n     * @param _cap above which the vesting is closed\n     * @param _rate is the amounts of tokens given for 1 ether\n     */\n\n    /**\n     * event for token purchase logging\n     * @param purchaser who paid for the tokens\n     * @param beneficiary who got the tokens\n     * @param value weis paid for purchase\n     * @param amount amount of tokens purchased\n     */\n    event TokenPurchase(address indexed purchaser, address indexed beneficiary, uint256 value, uint256 amount);\n\n    /**\n     * event for signaling finished vesting\n     */\n    event Finalized();\n\n    constructor(\n        address _tokenAddress,\n        address payable _wallet,\n        uint256 _minInvestment,\n        uint256 _cap,\n        uint256 _rate\n    ) {\n        require(_wallet != address(0x0));\n        require(_minInvestment >= 0);\n        require(_cap > 0);\n\n        TokenAddress = _tokenAddress;\n        wallet = _wallet;\n        rate = _rate;\n        minInvestment = _minInvestment;\n        cap = _cap * (10**18);\n    }\n\n    /**\n     * Low level token purchase function\n     * @param beneficiary will receive the tokens.\n     */\n    function buyTokens(address beneficiary) public payable whenNotPaused {\n        require(beneficiary != address(0x0));\n        require(validPurchase());\n        ++latestOrderId;\n        uint256 weiAmount = msg.value;\n        // update weiRaised\n        weiRaised = weiRaised.add(weiAmount);\n        // compute amount of tokens created\n        uint256 tokens = weiAmount.mul(rate);\n\n        uint256 tokensToSend = tokens.div(10); // Send 10 percent;\n        uint256 tokensToLock = tokens.sub(tokens.div(10)); // Lock 90 percent;\n\n        Order memory currentOrder;\n\n        currentOrder.amount = tokensToLock;\n        currentOrder.lockup = lockup;\n        currentOrder.claimed = false;\n\n        orders[msg.sender].push(currentOrder);\n\n        sold += tokens;\n\n        IERC20(TokenAddress).transfer(msg.sender, tokensToSend);\n\n        //emit TokenPurchase(msg.sender, beneficiary, weiAmount, tokens);\n\n        forwardFunds();\n    }\n\n    // send ether to the fund collection wallet\n    function forwardFunds() internal {\n        payable(wallet).transfer(msg.value);\n    }\n\n    // return true if the transaction can buy tokens\n    function validPurchase() internal view returns (bool) {\n\n        uint256 weiAmount = weiRaised.add(msg.value);\n        bool notSmallAmount = msg.value >= minInvestment;\n        bool withinCap = weiAmount.mul(rate) <= cap;\n\n        return (notSmallAmount && withinCap);\n    }\n\n    function getOrdersCount() public view returns(uint256) {\n        return orders[msg.sender].length;\n    }\n\n    function getLockedTokensCount() public view returns(uint256) {\n        uint256 tokensCount = 0;\n        for (uint i=0; i<orders[msg.sender].length; i++) {\n            if(!orders[msg.sender][i].claimed)\n                tokensCount+=orders[msg.sender][i].amount;\n        }\n        return tokensCount;\n    }\n\n    //allow owner to finalize the presale once the presale is ended\n    function finalize() public onlyOwner {\n        require(!isFinalized);\n        require(hasEnded());\n\n        emit Finalized();\n\n        isFinalized = true;\n    }\n\n    //return true if vesting has ended\n    function hasEnded() public view returns (bool) {\n        bool capReached = (weiRaised * rate >= cap);\n        return capReached;\n    }\n}",
  "sourcePath": "C:\\dev\\_tht\\contracts\\ThtVesting.sol",
  "compiler": {
    "name": "solc",
    "version": "0.8.10+commit.fc410830.Emscripten.clang"
  },
  "schemaVersion": "3.4.4",
  "updatedAt": "2022-02-17T12:43:56.417Z",
  "networkType": "ethereum",
  "devdoc": {
    "events": {
      "TokenPurchase(address,address,uint256,uint256)": {
        "params": {
          "amount": "amount of tokens purchased",
          "beneficiary": "who got the tokens",
          "purchaser": "who paid for the tokens",
          "value": "weis paid for purchase"
        }
      }
    },
    "kind": "dev",
    "methods": {
      "buyTokens(address)": {
        "params": {
          "beneficiary": "will receive the tokens."
        }
      },
      "owner()": {
        "details": "Returns the address of the current owner."
      },
      "paused()": {
        "details": "Returns true if the contract is paused, and false otherwise."
      },
      "renounceOwnership()": {
        "details": "Leaves the contract without owner. It will not be possible to call `onlyOwner` functions anymore. Can only be called by the current owner. NOTE: Renouncing ownership will leave the contract without an owner, thereby removing any functionality that is only available to the owner."
      },
      "transferOwnership(address)": {
        "details": "Transfers ownership of the contract to a new account (`newOwner`). Can only be called by the current owner."
      }
    },
    "title": "ThtVesting",
    "version": 1
  },
  "userdoc": {
    "events": {
      "Finalized()": {
        "notice": "event for signaling finished vesting"
      },
      "TokenPurchase(address,address,uint256,uint256)": {
        "notice": "event for token purchase logging"
      }
    },
    "kind": "user",
    "methods": {
      "buyTokens(address)": {
        "notice": "Low level token purchase function"
      }
    },
    "version": 1
  }
}